{
  "_format": "hh-sol-artifact-1",
  "contractName": "Vote",
  "sourceName": "contracts/VoteFavorite.sol",
  "abi": [
    {
      "inputs": [],
      "stateMutability": "nonpayable",
      "type": "constructor"
    },
    {
      "inputs": [
        {
          "internalType": "address",
          "name": "",
          "type": "address"
        }
      ],
      "name": "favorites",
      "outputs": [
        {
          "internalType": "string",
          "name": "",
          "type": "string"
        }
      ],
      "stateMutability": "view",
      "type": "function"
    },
    {
      "inputs": [],
      "name": "getTotalVoter",
      "outputs": [
        {
          "internalType": "uint256",
          "name": "",
          "type": "uint256"
        }
      ],
      "stateMutability": "view",
      "type": "function"
    },
    {
      "inputs": [
        {
          "internalType": "address",
          "name": "_voter",
          "type": "address"
        }
      ],
      "name": "getVoterFavorite",
      "outputs": [
        {
          "internalType": "string",
          "name": "",
          "type": "string"
        }
      ],
      "stateMutability": "view",
      "type": "function"
    },
    {
      "inputs": [
        {
          "internalType": "address",
          "name": "_voter",
          "type": "address"
        }
      ],
      "name": "initialFavorite",
      "outputs": [],
      "stateMutability": "nonpayable",
      "type": "function"
    },
    {
      "inputs": [
        {
          "internalType": "string",
          "name": "_favorite",
          "type": "string"
        }
      ],
      "name": "setVoterFavorite",
      "outputs": [],
      "stateMutability": "nonpayable",
      "type": "function"
    },
    {
      "inputs": [
        {
          "internalType": "uint256",
          "name": "",
          "type": "uint256"
        }
      ],
      "name": "voterAddress",
      "outputs": [
        {
          "internalType": "address",
          "name": "",
          "type": "address"
        }
      ],
      "stateMutability": "view",
      "type": "function"
    }
  ],
  "bytecode": "0x608060405234801561001057600080fd5b5033600260006101000a81548173ffffffffffffffffffffffffffffffffffffffff021916908373ffffffffffffffffffffffffffffffffffffffff160217905550610afa806100616000396000f3fe608060405234801561001057600080fd5b50600436106100625760003560e01c806301f85b8e146100675780630b93400e14610083578063128538ff146100a15780635d55f2de146100bd57806388febf8d146100ed57806392534ab91461011d575b600080fd5b610081600480360381019061007c91906106f8565b61014d565b005b61008b61029c565b60405161009891906108df565b60405180910390f35b6100bb60048036038101906100b69190610721565b6102a9565b005b6100d760048036038101906100d29190610762565b610362565b6040516100e49190610862565b60405180910390f35b610107600480360381019061010291906106f8565b6103a1565b604051610114919061087d565b60405180910390f35b610137600480360381019061013291906106f8565b6104e3565b604051610144919061087d565b60405180910390f35b600260009054906101000a900473ffffffffffffffffffffffffffffffffffffffff1673ffffffffffffffffffffffffffffffffffffffff163373ffffffffffffffffffffffffffffffffffffffff16146101dd576040517f08c379a00000000000000000000000000000000000000000000000000000000081526004016101d4906108bf565b60405180910390fd5b80600073ffffffffffffffffffffffffffffffffffffffff168173ffffffffffffffffffffffffffffffffffffffff16141561024e576040517f08c379a00000000000000000000000000000000000000000000000000000000081526004016102459061089f565b60405180910390fd5b6000808373ffffffffffffffffffffffffffffffffffffffff1673ffffffffffffffffffffffffffffffffffffffff16815260200190815260200160002060006102989190610583565b5050565b6000600180549050905090565b806000803373ffffffffffffffffffffffffffffffffffffffff1673ffffffffffffffffffffffffffffffffffffffff16815260200190815260200160002090805190602001906102fb9291906105c3565b506001339080600181540180825580915050600190039060005260206000200160009091909190916101000a81548173ffffffffffffffffffffffffffffffffffffffff021916908373ffffffffffffffffffffffffffffffffffffffff16021790555050565b6001818154811061037257600080fd5b906000526020600020016000915054906101000a900473ffffffffffffffffffffffffffffffffffffffff1681565b606081600073ffffffffffffffffffffffffffffffffffffffff168173ffffffffffffffffffffffffffffffffffffffff161415610414576040517f08c379a000000000000000000000000000000000000000000000000000000000815260040161040b9061089f565b60405180910390fd5b6000808473ffffffffffffffffffffffffffffffffffffffff1673ffffffffffffffffffffffffffffffffffffffff168152602001908152602001600020805461045d906109f5565b80601f0160208091040260200160405190810160405280929190818152602001828054610489906109f5565b80156104d65780601f106104ab576101008083540402835291602001916104d6565b820191906000526020600020905b8154815290600101906020018083116104b957829003601f168201915b5050505050915050919050565b60006020528060005260406000206000915090508054610502906109f5565b80601f016020809104026020016040519081016040528092919081815260200182805461052e906109f5565b801561057b5780601f106105505761010080835404028352916020019161057b565b820191906000526020600020905b81548152906001019060200180831161055e57829003601f168201915b505050505081565b50805461058f906109f5565b6000825580601f106105a157506105c0565b601f0160209004906000526020600020908101906105bf9190610649565b5b50565b8280546105cf906109f5565b90600052602060002090601f0160209004810192826105f15760008555610638565b82601f1061060a57805160ff1916838001178555610638565b82800160010185558215610638579182015b8281111561063757825182559160200191906001019061061c565b5b5090506106459190610649565b5090565b5b8082111561066257600081600090555060010161064a565b5090565b60006106796106748461092b565b6108fa565b90508281526020810184848401111561069157600080fd5b61069c8482856109b3565b509392505050565b6000813590506106b381610a96565b92915050565b600082601f8301126106ca57600080fd5b81356106da848260208601610666565b91505092915050565b6000813590506106f281610aad565b92915050565b60006020828403121561070a57600080fd5b6000610718848285016106a4565b91505092915050565b60006020828403121561073357600080fd5b600082013567ffffffffffffffff81111561074d57600080fd5b610759848285016106b9565b91505092915050565b60006020828403121561077457600080fd5b6000610782848285016106e3565b91505092915050565b61079481610977565b82525050565b60006107a58261095b565b6107af8185610966565b93506107bf8185602086016109c2565b6107c881610a85565b840191505092915050565b60006107e0600f83610966565b91507f496e76616c6964206164647265737300000000000000000000000000000000006000830152602082019050919050565b6000610820601a83610966565b91507f596f7520646f6e27742068617665207065726d697373696f6e2e0000000000006000830152602082019050919050565b61085c816109a9565b82525050565b6000602082019050610877600083018461078b565b92915050565b60006020820190508181036000830152610897818461079a565b905092915050565b600060208201905081810360008301526108b8816107d3565b9050919050565b600060208201905081810360008301526108d881610813565b9050919050565b60006020820190506108f46000830184610853565b92915050565b6000604051905081810181811067ffffffffffffffff8211171561092157610920610a56565b5b8060405250919050565b600067ffffffffffffffff82111561094657610945610a56565b5b601f19601f8301169050602081019050919050565b600081519050919050565b600082825260208201905092915050565b600061098282610989565b9050919050565b600073ffffffffffffffffffffffffffffffffffffffff82169050919050565b6000819050919050565b82818337600083830152505050565b60005b838110156109e05780820151818401526020810190506109c5565b838111156109ef576000848401525b50505050565b60006002820490506001821680610a0d57607f821691505b60208210811415610a2157610a20610a27565b5b50919050565b7f4e487b7100000000000000000000000000000000000000000000000000000000600052602260045260246000fd5b7f4e487b7100000000000000000000000000000000000000000000000000000000600052604160045260246000fd5b6000601f19601f8301169050919050565b610a9f81610977565b8114610aaa57600080fd5b50565b610ab6816109a9565b8114610ac157600080fd5b5056fea264697066735822122007f3398116d4560940c06a6b8ab71d5f48b6f726f77c5c511971719acc7bbe8964736f6c63430008000033",
  "linkReferences": {},
  "deployedLinkReferences": {}
}