{
  "_format": "hh-sol-artifact-1",
  "contractName": "Vote",
  "sourceName": "contracts/VoteFavorite.sol",
  "abi": [
    {
      "inputs": [],
      "stateMutability": "nonpayable",
      "type": "constructor"
    },
    {
      "inputs": [
        {
          "internalType": "address",
          "name": "",
          "type": "address"
        }
      ],
      "name": "favorites",
      "outputs": [
        {
          "internalType": "string",
          "name": "",
          "type": "string"
        }
      ],
      "stateMutability": "view",
      "type": "function"
    },
    {
      "inputs": [],
      "name": "getTotalVoter",
      "outputs": [
        {
          "internalType": "uint256",
          "name": "",
          "type": "uint256"
        }
      ],
      "stateMutability": "view",
      "type": "function"
    },
    {
      "inputs": [
        {
          "internalType": "address",
          "name": "_voter",
          "type": "address"
        }
      ],
      "name": "getVoterFavorite",
      "outputs": [
        {
          "internalType": "string",
          "name": "",
          "type": "string"
        }
      ],
      "stateMutability": "view",
      "type": "function"
    },
    {
      "inputs": [
        {
          "internalType": "address",
          "name": "_voter",
          "type": "address"
        }
      ],
      "name": "initialFavorite",
      "outputs": [],
      "stateMutability": "nonpayable",
      "type": "function"
    },
    {
      "inputs": [],
      "name": "sendVoteDonate",
      "outputs": [],
      "stateMutability": "payable",
      "type": "function"
    },
    {
      "inputs": [
        {
          "internalType": "string",
          "name": "_favorite",
          "type": "string"
        }
      ],
      "name": "setVoterFavorite",
      "outputs": [],
      "stateMutability": "nonpayable",
      "type": "function"
    },
    {
      "inputs": [
        {
          "internalType": "uint256",
          "name": "",
          "type": "uint256"
        }
      ],
      "name": "voterAddress",
      "outputs": [
        {
          "internalType": "address",
          "name": "",
          "type": "address"
        }
      ],
      "stateMutability": "view",
      "type": "function"
    }
  ],
  "bytecode": "0x608060405234801561001057600080fd5b5033600260006101000a81548173ffffffffffffffffffffffffffffffffffffffff021916908373ffffffffffffffffffffffffffffffffffffffff160217905550610bdb806100616000396000f3fe6080604052600436106100705760003560e01c80635d55f2de1161004e5780635d55f2de146100f257806388febf8d1461012f57806392534ab91461016c57806399bb01f6146101a957610070565b806301f85b8e146100755780630b93400e1461009e578063128538ff146100c9575b600080fd5b34801561008157600080fd5b5061009c6004803603810190610097919061079f565b6101b3565b005b3480156100aa57600080fd5b506100b3610272565b6040516100c091906109b5565b60405180910390f35b3480156100d557600080fd5b506100f060048036038101906100eb91906107c8565b61027f565b005b3480156100fe57600080fd5b5061011960048036038101906101149190610809565b610338565b6040516101269190610938565b60405180910390f35b34801561013b57600080fd5b506101566004803603810190610151919061079f565b610377565b6040516101639190610953565b60405180910390f35b34801561017857600080fd5b50610193600480360381019061018e919061079f565b6104b9565b6040516101a09190610953565b60405180910390f35b6101b1610559565b005b80600073ffffffffffffffffffffffffffffffffffffffff168173ffffffffffffffffffffffffffffffffffffffff161415610224576040517f08c379a000000000000000000000000000000000000000000000000000000000815260040161021b90610975565b60405180910390fd5b6000808373ffffffffffffffffffffffffffffffffffffffff1673ffffffffffffffffffffffffffffffffffffffff168152602001908152602001600020600061026e919061062a565b5050565b6000600180549050905090565b806000803373ffffffffffffffffffffffffffffffffffffffff1673ffffffffffffffffffffffffffffffffffffffff16815260200190815260200160002090805190602001906102d192919061066a565b506001339080600181540180825580915050600190039060005260206000200160009091909190916101000a81548173ffffffffffffffffffffffffffffffffffffffff021916908373ffffffffffffffffffffffffffffffffffffffff16021790555050565b6001818154811061034857600080fd5b906000526020600020016000915054906101000a900473ffffffffffffffffffffffffffffffffffffffff1681565b606081600073ffffffffffffffffffffffffffffffffffffffff168173ffffffffffffffffffffffffffffffffffffffff1614156103ea576040517f08c379a00000000000000000000000000000000000000000000000000000000081526004016103e190610975565b60405180910390fd5b6000808473ffffffffffffffffffffffffffffffffffffffff1673ffffffffffffffffffffffffffffffffffffffff168152602001908152602001600020805461043390610ad6565b80601f016020809104026020016040519081016040528092919081815260200182805461045f90610ad6565b80156104ac5780601f10610481576101008083540402835291602001916104ac565b820191906000526020600020905b81548152906001019060200180831161048f57829003601f168201915b5050505050915050919050565b600060205280600052604060002060009150905080546104d890610ad6565b80601f016020809104026020016040519081016040528092919081815260200182805461050490610ad6565b80156105515780601f1061052657610100808354040283529160200191610551565b820191906000526020600020905b81548152906001019060200180831161053457829003601f168201915b505050505081565b6000600260009054906101000a900473ffffffffffffffffffffffffffffffffffffffff1673ffffffffffffffffffffffffffffffffffffffff16346040516105a190610923565b60006040518083038185875af1925050503d80600081146105de576040519150601f19603f3d011682016040523d82523d6000602084013e6105e3565b606091505b5050905080610627576040517f08c379a000000000000000000000000000000000000000000000000000000000815260040161061e90610995565b60405180910390fd5b50565b50805461063690610ad6565b6000825580601f106106485750610667565b601f01602090049060005260206000209081019061066691906106f0565b5b50565b82805461067690610ad6565b90600052602060002090601f01602090048101928261069857600085556106df565b82601f106106b157805160ff19168380011785556106df565b828001600101855582156106df579182015b828111156106de5782518255916020019190600101906106c3565b5b5090506106ec91906106f0565b5090565b5b808211156107095760008160009055506001016106f1565b5090565b600061072061071b84610a01565b6109d0565b90508281526020810184848401111561073857600080fd5b610743848285610a94565b509392505050565b60008135905061075a81610b77565b92915050565b600082601f83011261077157600080fd5b813561078184826020860161070d565b91505092915050565b60008135905061079981610b8e565b92915050565b6000602082840312156107b157600080fd5b60006107bf8482850161074b565b91505092915050565b6000602082840312156107da57600080fd5b600082013567ffffffffffffffff8111156107f457600080fd5b61080084828501610760565b91505092915050565b60006020828403121561081b57600080fd5b60006108298482850161078a565b91505092915050565b61083b81610a58565b82525050565b600061084c82610a31565b6108568185610a47565b9350610866818560208601610aa3565b61086f81610b66565b840191505092915050565b6000610887600f83610a47565b91507f496e76616c6964206164647265737300000000000000000000000000000000006000830152602082019050919050565b60006108c7600d83610a47565b91507f4661696c656420646f6e617465000000000000000000000000000000000000006000830152602082019050919050565b6000610907600083610a3c565b9150600082019050919050565b61091d81610a8a565b82525050565b600061092e826108fa565b9150819050919050565b600060208201905061094d6000830184610832565b92915050565b6000602082019050818103600083015261096d8184610841565b905092915050565b6000602082019050818103600083015261098e8161087a565b9050919050565b600060208201905081810360008301526109ae816108ba565b9050919050565b60006020820190506109ca6000830184610914565b92915050565b6000604051905081810181811067ffffffffffffffff821117156109f7576109f6610b37565b5b8060405250919050565b600067ffffffffffffffff821115610a1c57610a1b610b37565b5b601f19601f8301169050602081019050919050565b600081519050919050565b600081905092915050565b600082825260208201905092915050565b6000610a6382610a6a565b9050919050565b600073ffffffffffffffffffffffffffffffffffffffff82169050919050565b6000819050919050565b82818337600083830152505050565b60005b83811015610ac1578082015181840152602081019050610aa6565b83811115610ad0576000848401525b50505050565b60006002820490506001821680610aee57607f821691505b60208210811415610b0257610b01610b08565b5b50919050565b7f4e487b7100000000000000000000000000000000000000000000000000000000600052602260045260246000fd5b7f4e487b7100000000000000000000000000000000000000000000000000000000600052604160045260246000fd5b6000601f19601f8301169050919050565b610b8081610a58565b8114610b8b57600080fd5b50565b610b9781610a8a565b8114610ba257600080fd5b5056fea2646970667358221220a9d6e0753dae57fc9823f2aae80ef09d21806a7df0315f7ece54dbd29af637d464736f6c63430008000033",
  "linkReferences": {},
  "deployedLinkReferences": {}
}